{
  "abi": [
    {
      "inputs": [
        {
          "internalType": "contract IERC20",
          "name": "_token",
          "type": "address"
        },
        {
          "internalType": "uint256",
          "name": "_MIN_STAKE_INCREMENT",
          "type": "uint256"
        },
        {
          "internalType": "uint256",
          "name": "_REWARD_MULTIPLIER",
          "type": "uint256"
        },
        {
          "internalType": "address",
          "name": "_trustDAO",
          "type": "address"
        }
      ],
      "stateMutability": "nonpayable",
      "type": "constructor"
    },
    {
      "anonymous": false,
      "inputs": [
        {
          "indexed": false,
          "internalType": "uint256",
          "name": "amount",
          "type": "uint256"
        },
        {
          "indexed": false,
          "internalType": "address",
          "name": "recipient",
          "type": "address"
        }
      ],
      "name": "AirdropSuccessful",
      "type": "event"
    },
    {
      "anonymous": false,
      "inputs": [
        {
          "indexed": false,
          "internalType": "uint256",
          "name": "epochCount",
          "type": "uint256"
        }
      ],
      "name": "AllRewardsDistributed",
      "type": "event"
    },
    {
      "anonymous": false,
      "inputs": [
        {
          "indexed": false,
          "internalType": "uint256",
          "name": "epochCount",
          "type": "uint256"
        }
      ],
      "name": "MinStakeMet",
      "type": "event"
    },
    {
      "anonymous": false,
      "inputs": [
        {
          "indexed": true,
          "internalType": "address",
          "name": "previousOwner",
          "type": "address"
        },
        {
          "indexed": true,
          "internalType": "address",
          "name": "newOwner",
          "type": "address"
        }
      ],
      "name": "OwnershipTransferred",
      "type": "event"
    },
    {
      "anonymous": false,
      "inputs": [
        {
          "indexed": false,
          "internalType": "uint256",
          "name": "amount",
          "type": "uint256"
        },
        {
          "indexed": false,
          "internalType": "address",
          "name": "staker",
          "type": "address"
        }
      ],
      "name": "StakeSuccessful",
      "type": "event"
    },
    {
      "inputs": [],
      "name": "MIN_STAKE_INCREMENT",
      "outputs": [
        {
          "internalType": "uint256",
          "name": "",
          "type": "uint256"
        }
      ],
      "stateMutability": "view",
      "type": "function"
    },
    {
      "inputs": [],
      "name": "REWARD_MULTIPLIER",
      "outputs": [
        {
          "internalType": "uint256",
          "name": "",
          "type": "uint256"
        }
      ],
      "stateMutability": "view",
      "type": "function"
    },
    {
      "inputs": [
        {
          "internalType": "address",
          "name": "recipient",
          "type": "address"
        }
      ],
      "name": "airdrop",
      "outputs": [],
      "stateMutability": "nonpayable",
      "type": "function"
    },
    {
      "inputs": [],
      "name": "allowStaking",
      "outputs": [
        {
          "internalType": "bool",
          "name": "",
          "type": "bool"
        }
      ],
      "stateMutability": "view",
      "type": "function"
    },
    {
      "inputs": [
        {
          "internalType": "uint256",
          "name": "amount",
          "type": "uint256"
        }
      ],
      "name": "changeMinStake",
      "outputs": [],
      "stateMutability": "nonpayable",
      "type": "function"
    },
    {
      "inputs": [
        {
          "internalType": "uint256",
          "name": "amount",
          "type": "uint256"
        }
      ],
      "name": "changeRewardMultiplier",
      "outputs": [],
      "stateMutability": "nonpayable",
      "type": "function"
    },
    {
      "inputs": [],
      "name": "confirmDeposit",
      "outputs": [],
      "stateMutability": "nonpayable",
      "type": "function"
    },
    {
      "inputs": [
        {
          "internalType": "address",
          "name": "recipient",
          "type": "address"
        }
      ],
      "name": "drainTokens",
      "outputs": [],
      "stateMutability": "nonpayable",
      "type": "function"
    },
    {
      "inputs": [],
      "name": "epochCount",
      "outputs": [
        {
          "internalType": "uint256",
          "name": "",
          "type": "uint256"
        }
      ],
      "stateMutability": "view",
      "type": "function"
    },
    {
      "inputs": [
        {
          "internalType": "uint256",
          "name": "_epochCount",
          "type": "uint256"
        }
      ],
      "name": "getMinStake",
      "outputs": [
        {
          "internalType": "uint256",
          "name": "",
          "type": "uint256"
        }
      ],
      "stateMutability": "view",
      "type": "function"
    },
    {
      "inputs": [],
      "name": "getMinStakeIncrement",
      "outputs": [
        {
          "internalType": "uint256",
          "name": "",
          "type": "uint256"
        }
      ],
      "stateMutability": "view",
      "type": "function"
    },
    {
      "inputs": [],
      "name": "getRewardMultiplier",
      "outputs": [
        {
          "internalType": "uint256",
          "name": "",
          "type": "uint256"
        }
      ],
      "stateMutability": "view",
      "type": "function"
    },
    {
      "inputs": [
        {
          "internalType": "uint256",
          "name": "_epoch",
          "type": "uint256"
        },
        {
          "internalType": "address",
          "name": "_staker",
          "type": "address"
        }
      ],
      "name": "getStakerInfo",
      "outputs": [
        {
          "internalType": "uint256",
          "name": "stakedAmount",
          "type": "uint256"
        },
        {
          "internalType": "uint256",
          "name": "stakeTransformedAmount",
          "type": "uint256"
        },
        {
          "internalType": "uint256",
          "name": "rewardAmount",
          "type": "uint256"
        },
        {
          "internalType": "bool",
          "name": "isRewarded",
          "type": "bool"
        }
      ],
      "stateMutability": "view",
      "type": "function"
    },
    {
      "inputs": [
        {
          "internalType": "uint256",
          "name": "_epochCount",
          "type": "uint256"
        }
      ],
      "name": "getTotalRewardInserted",
      "outputs": [
        {
          "internalType": "uint256",
          "name": "",
          "type": "uint256"
        }
      ],
      "stateMutability": "view",
      "type": "function"
    },
    {
      "inputs": [
        {
          "internalType": "uint256",
          "name": "_epochCount",
          "type": "uint256"
        }
      ],
      "name": "getTotalStaked",
      "outputs": [
        {
          "internalType": "uint256",
          "name": "",
          "type": "uint256"
        }
      ],
      "stateMutability": "view",
      "type": "function"
    },
    {
      "inputs": [
        {
          "internalType": "uint256",
          "name": "_epochCount",
          "type": "uint256"
        }
      ],
      "name": "getTotalTrustReward",
      "outputs": [
        {
          "internalType": "uint256",
          "name": "",
          "type": "uint256"
        }
      ],
      "stateMutability": "view",
      "type": "function"
    },
    {
      "inputs": [
        {
          "internalType": "uint256",
          "name": "",
          "type": "uint256"
        }
      ],
      "name": "history",
      "outputs": [
        {
          "internalType": "uint256",
          "name": "epochCount",
          "type": "uint256"
        },
        {
          "internalType": "uint256",
          "name": "minStake",
          "type": "uint256"
        },
        {
          "internalType": "uint256",
          "name": "totalTrustReward",
          "type": "uint256"
        },
        {
          "internalType": "uint256",
          "name": "totalStaked",
          "type": "uint256"
        },
        {
          "internalType": "uint256",
          "name": "totalRewardInserted",
          "type": "uint256"
        },
        {
          "internalType": "bool",
          "name": "changeMinStake",
          "type": "bool"
        },
        {
          "internalType": "bool",
          "name": "changeRewardMultiplier",
          "type": "bool"
        }
      ],
      "stateMutability": "view",
      "type": "function"
    },
    {
      "inputs": [
        {
          "internalType": "address",
          "name": "recipient",
          "type": "address"
        },
        {
          "internalType": "uint256",
          "name": "amount",
          "type": "uint256"
        }
      ],
      "name": "insertAirdropRewards",
      "outputs": [],
      "stateMutability": "nonpayable",
      "type": "function"
    },
    {
      "inputs": [],
      "name": "owner",
      "outputs": [
        {
          "internalType": "address",
          "name": "",
          "type": "address"
        }
      ],
      "stateMutability": "view",
      "type": "function"
    },
    {
      "inputs": [],
      "name": "renounceOwnership",
      "outputs": [],
      "stateMutability": "nonpayable",
      "type": "function"
    },
    {
      "inputs": [
        {
          "internalType": "uint256",
          "name": "amount",
          "type": "uint256"
        },
        {
          "internalType": "address",
          "name": "staker",
          "type": "address"
        }
      ],
      "name": "stakeEpoch",
      "outputs": [],
      "stateMutability": "nonpayable",
      "type": "function"
    },
    {
      "inputs": [],
      "name": "startEpoch",
      "outputs": [
        {
          "internalType": "bool",
          "name": "",
          "type": "bool"
        }
      ],
      "stateMutability": "view",
      "type": "function"
    },
    {
      "inputs": [],
      "name": "startEpochManually",
      "outputs": [],
      "stateMutability": "nonpayable",
      "type": "function"
    },
    {
      "inputs": [],
      "name": "token",
      "outputs": [
        {
          "internalType": "contract IERC20",
          "name": "",
          "type": "address"
        }
      ],
      "stateMutability": "view",
      "type": "function"
    },
    {
      "inputs": [
        {
          "internalType": "address",
          "name": "newOwner",
          "type": "address"
        }
      ],
      "name": "transferOwnership",
      "outputs": [],
      "stateMutability": "nonpayable",
      "type": "function"
    },
    {
      "inputs": [],
      "name": "trustDAO",
      "outputs": [
        {
          "internalType": "address",
          "name": "",
          "type": "address"
        }
      ],
      "stateMutability": "view",
      "type": "function"
    },
    {
      "inputs": [
        {
          "internalType": "address",
          "name": "staker",
          "type": "address"
        }
      ],
      "name": "withdrawStake",
      "outputs": [],
      "stateMutability": "nonpayable",
      "type": "function"
    }
  ],
  "bytecode": {
    "object": "0x60a0604052600060045560058054600160ff1991821681179092556007805490911690911790553480156200003357600080fd5b5060405162002443380380620024438339810160408190526200005691620000fc565b620000613362000093565b6001600160a01b03938416608052600292909255600355600180546001600160a01b031916919092161790556200014d565b600080546001600160a01b038381166001600160a01b0319831681178455604051919092169283917f8be0079c531659141344cd1fd0a4f28419497f9722a3daafe3b4186f6b6457e09190a35050565b6001600160a01b0381168114620000f957600080fd5b50565b600080600080608085870312156200011357600080fd5b84516200012081620000e3565b80945050602085015192506040850151915060608501516200014281620000e3565b939692955090935050565b60805161228d620001b66000396000818161047b0152818161086701528181610b2301528181610e1c01528181610f5601528181611187015281816113350152818161167d015281816116f2015281816117e4015281816119aa0152611a63015261228d6000f3fe608060405234801561001057600080fd5b50600436106101a95760003560e01c8063829965cc116100f9578063d14818bb11610097578063efe2ace411610071578063efe2ace41461045b578063f2fde38b14610463578063fc0c546a14610476578063fc0c833a1461049d57600080fd5b8063d14818bb14610428578063e62f98141461043b578063eaf1d1121461044857600080fd5b8063a2c8b177116100d3578063a2c8b1771461035d578063a7a38f0b1461037a578063bebc637814610402578063c23a5cea1461041557600080fd5b8063829965cc146102ba5780638da5cb5b146102c35780639e69ed45146102e857600080fd5b806336ba1f3c11610166578063598b47dd11610140578063598b47dd146102635780636f4d96711461026c578063715018a61461028f57806373f231e71461029757600080fd5b806336ba1f3c1461022f5780633b12dff51461023857806354931d481461024057600080fd5b8063087270de146101ae57806321860a05146101b857806323dcdb89146101cb57806325b00885146101de57806329a8d2d6146101e65780632f8899f3146101f9575b600080fd5b6101b66104b0565b005b6101b66101c6366004611fe4565b610573565b6101b66101d9366004612006565b61098d565b6101b6610ac0565b6101b66101f4366004612006565b610bf4565b61021c610207366004612006565b60009081526006602052604090206004015490565b6040519081526020015b60405180910390f35b61021c60025481565b60035461021c565b61021c61024e366004612006565b60009081526006602052604090206002015490565b61021c60035481565b61021c61027a366004612006565b60009081526006602052604090206005015490565b6101b6610d30565b61021c6102a5366004612006565b60009081526006602052604090206001015490565b61021c60045481565b6000546001600160a01b03165b6040516001600160a01b039091168152602001610226565b61033b6102f636600461201f565b60009182526006602090815260408084206001600160a01b0393909316845260039283019091529091208054600182015460028301549290930154909360ff90911690565b6040805194855260208501939093529183015215156060820152608001610226565b60075461036a9060ff1681565b6040519015158152602001610226565b6103c9610388366004612006565b600660208190526000918252604090912080546001820154600283015460048401546005850154949095015492949193909260ff8082169161010090041687565b6040805197885260208801969096529486019390935260608501919091526080840152151560a0830152151560c082015260e001610226565b6101b661041036600461201f565b610d42565b6101b6610423366004611fe4565b61106d565b6101b661043636600461204b565b6111e7565b60055461036a9060ff1681565b6001546102d0906001600160a01b031681565b60025461021c565b6101b6610471366004611fe4565b6115d9565b6102d07f000000000000000000000000000000000000000000000000000000000000000081565b6101b66104ab366004611fe4565b611652565b6104b8611719565b60075460ff1661051f5760405162461bcd60e51b815260206004820152602760248201527f526174696e6773206e6f7420646f6e65206f7220757365636f6e6669726d4465604482015266706f736974282960c81b60648201526084015b60405180910390fd5b6000600454116105695760405162461bcd60e51b8152602060048201526015602482015274086c2dcdcdee840c4ca40ccd2e4e6e840cae0dec6d605b1b6044820152606401610516565b610571611773565b565b6001600160a01b0381166105d45760405162461bcd60e51b815260206004820152602260248201527f43616e6e6f742061697264726f7020746f20746865207a65726f206164647265604482015261737360f01b6064820152608401610516565b60045460009081526006602052604081206002015490036106075760405162461bcd60e51b815260040161051690612075565b60055460ff16156106985760405162461bcd60e51b815260206004820152604f60248201527f4d696e207374616b65206861736e2774206265656e206d65742c20736f20726160448201527f74696e677320617265206e6f74206f70656e20616e64206e6f206f6e6520636160648201526e1b88189948185a5c991c9bdc1c1959608a1b608482015260a401610516565b336001600160a01b038216146106e35760405162461bcd60e51b815260206004820152601060248201526f04e6f7420796f75722061697264726f760841b6044820152606401610516565b60075460ff161561072d5760405162461bcd60e51b815260206004820152601460248201527314985d1a5b99c81dda5b991bddc818db1bdcd95960621b6044820152606401610516565b60045460009081526006602090815260408083206001600160a01b03851684526003810190925282206002015490918190036107c85760405162461bcd60e51b815260206004820152603460248201527f526563697069656e74206e6f7420656c696769626c6520666f7220616e2061696044820152730e4c8e4dee040ccdee440e8d0d2e640cae0dec6d60631b6064820152608401610516565b6001600160a01b038316600090815260038084016020526040909120015460ff16156108065760405162461bcd60e51b8152600401610516906120a0565b600082600201541161085a5760405162461bcd60e51b815260206004820152601e60248201527f43757272656e742045706f6368207265776172647320657868617374656400006044820152606401610516565b61088e6001600160a01b037f0000000000000000000000000000000000000000000000000000000000000000168483611b5f565b6001600160a01b038316600090815260038084016020526040822001805460ff191660011790556002830180548392906108c990849061210a565b9091555050604080518281526001600160a01b03851660208201527fb8158573d3e1af45ecc2881d8480e9d2ff8d99068ec0ed2d614c3bd6e13a93e0910160405180910390a16000826002015411610988576005805460ff19166001179055600480549060006109388361211d565b90915550506007805460ff191660011790556004546040517f639e68be5d4b2bba59ad0d2fe86dfe641eeb00a4eda726ddd34c2ba748be31bb9161097f9190815260200190565b60405180910390a15b505050565b6001546001600160a01b031633146109d15760405162461bcd60e51b81526020600482015260076024820152664e6f742044414f60c81b6044820152606401610516565b60055460ff166109f35760405162461bcd60e51b815260040161051690612136565b6004546000908152600660205260408120600201549003610a265760405162461bcd60e51b815260040161051690612075565b60045460009081526006602081905260409091209081015460ff1615610aaa5760405162461bcd60e51b815260206004820152603360248201527f546865207374616b6520696e6372656d656e7420686173206265656e20616c746044820152720cae4cac840ccdee440e8d0d2e640cae0dec6d606b1b6064820152608401610516565b600291909155600601805460ff19166001179055565b610ac8611719565b60045415610b0e5760405162461bcd60e51b815260206004820152601360248201527209aeae6e840c4ca40ccd2e4e6e840cae0dec6d606b1b6044820152606401610516565b6040516370a0823160e01b81523060048201527f00000000000000000000000000000000000000000000000000000000000000006001600160a01b0316906370a0823190602401602060405180830381865afa158015610b72573d6000803e3d6000fd5b505050506040513d601f19601f82011682018060405250810190610b96919061215d565b63049e8e60146105695760405162461bcd60e51b8152602060048201526024808201527f496e636f727265637420616d6f756e742066726f6d20746f6b656e20636f6e746044820152631c9858dd60e21b6064820152608401610516565b6001546001600160a01b03163314610c385760405162461bcd60e51b81526020600482015260076024820152664e6f742044414f60c81b6044820152606401610516565b60055460ff16610c5a5760405162461bcd60e51b815260040161051690612136565b6004546000908152600660205260408120600201549003610c8d5760405162461bcd60e51b815260040161051690612075565b600454600090815260066020819052604090912090810154610100900460ff1615610d185760405162461bcd60e51b815260206004820152603560248201527f54686520726577617264206d756c7469706c69657220686173206265656e20616044820152740d8e8cae4cac840ccdee440e8d0d2e640cae0dec6d605b1b6064820152608401610516565b600391909155600601805461ff001916610100179055565b610d38611719565b6105716000611bc2565b6001600160a01b038116610da35760405162461bcd60e51b815260206004820152602260248201527f43616e6e6f74207374616b652066726f6d20746865207a65726f206164647265604482015261737360f01b6064820152608401610516565b336001600160a01b03821614610dfb5760405162461bcd60e51b815260206004820152601d60248201527f43616e6e6f74207374616b6520666f7220736f6d656f6e6520656c73650000006044820152606401610516565b6040516370a0823160e01b81526001600160a01b03828116600483015283917f0000000000000000000000000000000000000000000000000000000000000000909116906370a0823190602401602060405180830381865afa158015610e65573d6000803e3d6000fd5b505050506040513d601f19601f82011682018060405250810190610e89919061215d565b1015610ee35760405162461bcd60e51b815260206004820152602360248201527f496e73756666696369656e7420746f6b656e2062616c616e636520746f207374604482015262616b6560e81b6064820152608401610516565b60055460ff16610f055760405162461bcd60e51b815260040161051690612136565b6004546000908152600660205260408120600201549003610f385760405162461bcd60e51b815260040161051690612075565b6004546000908152600660205260409020610f7e6001600160a01b037f000000000000000000000000000000000000000000000000000000000000000016833086611c12565b6001600160a01b03821660009081526003820160205260409020839055610fa483611c50565b6001600160a01b0383166000818152600384016020908152604091829020600101939093558051868152928301919091527f66f8681af505cbc0f2650ee9253be81b85806bf8117063baa5a179cde9ce8ea8910160405180910390a161100983611c50565b81600401600082825461101c9190612176565b90915550506001810154600482015410610988576005805460ff191690556004546040519081527fb6b3a6d0500e58c398189a8e9c722ad0928237122ca53e527b1160189a5702bc9060200161097f565b60055460ff1661108f5760405162461bcd60e51b815260040161051690612136565b60045460009081526006602052604081206002015490036110c25760405162461bcd60e51b815260040161051690612075565b336001600160a01b0382161461110b5760405162461bcd60e51b815260206004820152600e60248201526d4e6f7420796f7572207374616b6560901b6044820152606401610516565b60045460009081526006602090815260408083206001600160a01b038516845260038101909252909120548061117a5760405162461bcd60e51b81526020600482015260146024820152734e6f207374616b6520746f20776974686472617760601b6044820152606401610516565b6111ae6001600160a01b037f0000000000000000000000000000000000000000000000000000000000000000168483611b5f565b808260040160008282546111c2919061210a565b9091555050506001600160a01b03909116600090815260039091016020526040812055565b6111ef611719565b6001600160a01b0382166112555760405162461bcd60e51b815260206004820152602760248201527f43616e6e6f7420736574207265776172647320666f7220746865207a65726f206044820152666164647265737360c81b6064820152608401610516565b60055460ff16156112eb5760405162461bcd60e51b815260206004820152605460248201527f4d696e207374616b65206861736e2774206265656e206d65742c20736f20726160448201527f74696e677320617265206e6f74206f70656e20616e642063616e6e6f7420696e606482015273736572742061697264726f70207265776172647360601b608482015260a401610516565b600454600090815260066020526040812060020154900361131e5760405162461bcd60e51b815260040161051690612075565b6040516370a0823160e01b815230600482015281907f00000000000000000000000000000000000000000000000000000000000000006001600160a01b0316906370a0823190602401602060405180830381865afa158015611384573d6000803e3d6000fd5b505050506040513d601f19601f820116820180604052508101906113a8919061215d565b101561140a5760405162461bcd60e51b815260206004820152602b60248201527f496e73756666696369656e7420746f6b656e7320696e20636f6e74726163742060448201526a0666f722061697264726f760ac1b6064820152608401610516565b60045460009081526006602090815260408083206001600160a01b03861684526003810190925290912060020154156114975760405162461bcd60e51b815260206004820152602960248201527f52657761726420666f722074686973206164647265737320686173206265656e604482015268081a5b9cd95c9d195960ba1b6064820152608401610516565b6001600160a01b038316600090815260038083016020526040909120015460ff16156114d55760405162461bcd60e51b8152600401610516906120a0565b806002015482111561153c5760405162461bcd60e51b815260206004820152602a60248201527f43616e6e6f7420726577617264206d6f7265207468616e2065706f636827732060448201526930b63637b1b0ba34b7b760b11b6064820152608401610516565b6001600160a01b03831660009081526003820160205260408120600201839055600582018054849290611570908490612176565b90915550506002810154600582015411156109885760405162461bcd60e51b8152602060048201526024808201527f496e73756666696369656e7420616c6c6f636174696f6e20666f722061697264604482015263726f707360e01b6064820152608401610516565b6115e1611719565b6001600160a01b0381166116465760405162461bcd60e51b815260206004820152602660248201527f4f776e61626c653a206e6577206f776e657220697320746865207a65726f206160448201526564647265737360d01b6064820152608401610516565b61164f81611bc2565b50565b61165a611719565b6040516370a0823160e01b815230600482015261164f9082906001600160a01b037f000000000000000000000000000000000000000000000000000000000000000016906370a0823190602401602060405180830381865afa1580156116c4573d6000803e3d6000fd5b505050506040513d601f19601f820116820180604052508101906116e8919061215d565b6001600160a01b037f0000000000000000000000000000000000000000000000000000000000000000169190611b5f565b6000546001600160a01b031633146105715760405162461bcd60e51b815260206004820181905260248201527f4f776e61626c653a2063616c6c6572206973206e6f7420746865206f776e65726044820152606401610516565b3330148061178b57506000546001600160a01b031633145b6117cf5760405162461bcd60e51b81526020600482015260156024820152742737ba1031b7b73a3930b1ba1037b91037bbb732b960591b6044820152606401610516565b6040516370a0823160e01b81523060048201527f00000000000000000000000000000000000000000000000000000000000000006001600160a01b0316906370a0823190602401602060405180830381865afa158015611833573d6000803e3d6000fd5b505050506040513d601f19601f82011682018060405250810190611857919061215d565b60000361189d5760405162461bcd60e51b8152602060048201526014602482015273185b1b0815149554d508185a5c991c9bdc1c195960621b6044820152606401610516565b60055460ff166118bf5760405162461bcd60e51b815260040161051690612136565b600454600090815260066020526040902060020154156119195760405162461bcd60e51b8152602060048201526015602482015274115c1bd8da08185b1c9958591e4818dc99585d1959605a1b6044820152606401610516565b60075460ff166119625760405162461bcd60e51b815260206004820152601460248201527341697264726f70206e6f7420636f6d706c65746560601b6044820152606401610516565b600454600081815260066020526040902060025490916119829190612189565b6001820155600454600003611a3c576040516370a0823160e01b8152306004820152610307907f00000000000000000000000000000000000000000000000000000000000000006001600160a01b0316906370a0823190602401602060405180830381865afa1580156119f9573d6000803e3d6000fd5b505050506040513d601f19601f82011682018060405250810190611a1d919061215d565b611a28906019612189565b611a3291906121a0565b6002820155611b4b565b6003548160010154611a4e9190612189565b6040516370a0823160e01b81523060048201527f00000000000000000000000000000000000000000000000000000000000000006001600160a01b0316906370a0823190602401602060405180830381865afa158015611ab2573d6000803e3d6000fd5b505050506040513d601f19601f82011682018060405250810190611ad6919061215d565b1015611b335760405162461bcd60e51b815260206004820152602660248201527f496e73756666696369656e7420746f6b656e73206c65667420666f72206e6577604482015265040cae0dec6d60d31b6064820152608401610516565b6003548160010154611b459190612189565b60028201555b60006004909101556007805460ff19169055565b6040516001600160a01b03831660248201526044810182905261098890849063a9059cbb60e01b906064015b60408051601f198184030181529190526020810180516001600160e01b03166001600160e01b031990931692909217909152611d63565b600080546001600160a01b038381166001600160a01b0319831681178455604051919092169283917f8be0079c531659141344cd1fd0a4f28419497f9722a3daafe3b4186f6b6457e09190a35050565b6040516001600160a01b0380851660248301528316604482015260648101829052611c4a9085906323b872dd60e01b90608401611b8b565b50505050565b600060648211611c5e575090565b6103e88211611c84576064611c7483605a612189565b611c7e91906121a0565b92915050565b6127108211611c9a576064611c74836050612189565b620186a08211611cb1576064611c74836046612189565b620f42408211611cc8576064611c7483603c612189565b620f42408211611cdf576064611c7483603c612189565b629896808211611cf6576064611c74836032612189565b629896808211611d0d576064611c74836028612189565b6305f5e1008211611d25576064611c7483601e612189565b633b9aca008211611d3d576064611c74836014612189565b6402540be4008211611d56576064611c7483600a612189565b6064611c74836001612189565b6000611db8826040518060400160405280602081526020017f5361666545524332303a206c6f772d6c6576656c2063616c6c206661696c6564815250856001600160a01b0316611e389092919063ffffffff16565b9050805160001480611dd9575080806020019051810190611dd991906121c2565b6109885760405162461bcd60e51b815260206004820152602a60248201527f5361666545524332303a204552433230206f7065726174696f6e20646964206e6044820152691bdd081cdd58d8d9595960b21b6064820152608401610516565b6060611e478484600085611e4f565b949350505050565b606082471015611eb05760405162461bcd60e51b815260206004820152602660248201527f416464726573733a20696e73756666696369656e742062616c616e636520666f6044820152651c8818d85b1b60d21b6064820152608401610516565b600080866001600160a01b03168587604051611ecc9190612208565b60006040518083038185875af1925050503d8060008114611f09576040519150601f19603f3d011682016040523d82523d6000602084013e611f0e565b606091505b5091509150611f1f87838387611f2a565b979650505050505050565b60608315611f99578251600003611f92576001600160a01b0385163b611f925760405162461bcd60e51b815260206004820152601d60248201527f416464726573733a2063616c6c20746f206e6f6e2d636f6e74726163740000006044820152606401610516565b5081611e47565b611e478383815115611fae5781518083602001fd5b8060405162461bcd60e51b81526004016105169190612224565b80356001600160a01b0381168114611fdf57600080fd5b919050565b600060208284031215611ff657600080fd5b611fff82611fc8565b9392505050565b60006020828403121561201857600080fd5b5035919050565b6000806040838503121561203257600080fd5b8235915061204260208401611fc8565b90509250929050565b6000806040838503121561205e57600080fd5b61206783611fc8565b946020939093013593505050565b602080825260119082015270115c1bd8da081b9bdd0818dc99585d1959607a1b604082015260600190565b60208082526034908201527f526563697069656e742068617320616c726561647920636c61696d65642061696040820152730e4c8e4dee040ccdee440e8d0d2e640cae0dec6d60631b606082015260800190565b634e487b7160e01b600052601160045260246000fd5b81810381811115611c7e57611c7e6120f4565b60006001820161212f5761212f6120f4565b5060010190565b6020808252600d908201526c115c1bd8da081cdd185c9d1959609a1b604082015260600190565b60006020828403121561216f57600080fd5b5051919050565b80820180821115611c7e57611c7e6120f4565b8082028115828204841417611c7e57611c7e6120f4565b6000826121bd57634e487b7160e01b600052601260045260246000fd5b500490565b6000602082840312156121d457600080fd5b81518015158114611fff57600080fd5b60005b838110156121ff5781810151838201526020016121e7565b50506000910152565b6000825161221a8184602087016121e4565b9190910192915050565b60208152600082518060208401526122438160408501602087016121e4565b601f01601f1916919091016040019291505056fea26469706673582212209aa3d7a2cf819e39fd2336a2c28457a399fe60f325be77a63f17fbe121ecc1ca64736f6c63430008140033",
    "linkReferences": {}
  },
  "methodIdentifiers": {
    "MIN_STAKE_INCREMENT()": "36ba1f3c",
    "REWARD_MULTIPLIER()": "598b47dd",
    "airdrop(address)": "21860a05",
    "allowStaking()": "e62f9814",
    "changeMinStake(uint256)": "23dcdb89",
    "changeRewardMultiplier(uint256)": "29a8d2d6",
    "confirmDeposit()": "25b00885",
    "drainTokens(address)": "fc0c833a",
    "epochCount()": "829965cc",
    "getMinStake(uint256)": "73f231e7",
    "getMinStakeIncrement()": "efe2ace4",
    "getRewardMultiplier()": "3b12dff5",
    "getStakerInfo(uint256,address)": "9e69ed45",
    "getTotalRewardInserted(uint256)": "6f4d9671",
    "getTotalStaked(uint256)": "2f8899f3",
    "getTotalTrustReward(uint256)": "54931d48",
    "history(uint256)": "a7a38f0b",
    "insertAirdropRewards(address,uint256)": "d14818bb",
    "owner()": "8da5cb5b",
    "renounceOwnership()": "715018a6",
    "stakeEpoch(uint256,address)": "bebc6378",
    "startEpoch()": "a2c8b177",
    "startEpochManually()": "087270de",
    "token()": "fc0c546a",
    "transferOwnership(address)": "f2fde38b",
    "trustDAO()": "eaf1d112",
    "withdrawStake(address)": "c23a5cea"
  },
  "id": 10
}